:200000000C94180F0C94490F0C94490F0C94490F0C94490F0C94490F0C94490F0C94490F51
:200020000C94490F0C94490F0C94490F0C94490F0C94490F0C94490F0C94490F0C94490F00
:200040000C94490F0C94596E0C94490F0C94490F0C94490F0C94490F0C94CE800C943AB0E9
:200060000C94490F0C944B0F0C94490F0C94490F0C94490F0C94490F0C94490F0C94490FBE
:200080000C94490F0C94490F0C94490F0C94490F0C94490F0C94490F0C94490F0C94490FA0
:2000A0000C94490F0C94490F0C94490F0C94490F0C94490F0C94490F0C94490F0C94490F80
:2000C0000C94490F0C94490F0C94490F0C94490F0C94490F0C94490F0C94490F0C94490F60
:2000E0000C94490F2881378156815A815D816181648168816B816F817281768180817AB175
:200100007FB184B18EB198B111B2A2B1AAB1B2B1BCB1C6B1D0B1DFB1E9B111B2F3B1FDB17A
:2001200007B232B235B224B228B22EB26CB239B23DB243B247B24BB251B255B259B26CB295
:200140005FB263B267B2084AD73B3BCE016E84BCBFFDC12F3D6C74319ABD56833DDA3D00C6
:20016000C77F11BED9E4BB4C3E916BAAAABE000000803F05A84CCDB2D44EB93836A9020C23
:2001800050B9918688083CA6AAAA2ABE000000803F005072696E7465722068616C7465645C
:2001A0002E206B696C6C28292063616C6C656421004B494C4C45442E20004B494C4C454496
:2001C0002E200020746F6F206C6F6E6720657874727573696F6E2070726576656E74656491
:2001E0000020636F6C6420657874727573696F6E2070726576656E746564006F6B005265AE
:2002000073656E643A20004F666673657473206170706C696564004572723A20546F6F202C
:200220006661722100546F6F206661722066726F6D207265666572656E636520706F696E60
:20024000740053657474696E672054726176656C20416363656C65726174696F6E3A20007A
:2002600053657474696E67205265747261637420416363656C65726174696F6E3A20005314
:20028000657474696E67205072696E7420416363656C65726174696F6E3A200053657474C2
:2002A000696E67205072696E7420616E642054726176656C20416363656C65726174696F76
:2002C0006E3A20004D31343520533C696E6465783E206F7574206F662072616E6765202888
:2002E000302D3129007A5F70726F62653A20007A5F6D61783A20007A5F6D696E3A20007993
:200300005F6D61783A2000785F6D61783A2000205A3A0020593A0020436F756E7420583A25
:20032000200020453A00205A3A0020593A00583A004649524D574152455F4E414D453A4DA1
:2003400061726C696E20312E312E302D52433620284769746875622920534F555243455F5D
:20036000434F44455F55524C3A68747470733A2F2F6769746875622E636F6D2F4D61726C60
:20038000696E4669726D776172652F4D61726C696E2050524F544F434F4C5F56455253493D
:2003A0004F4E3A312E30204D414348494E455F545950453A4D696E69204B6F7373656C20A9
:2003C00045585452554445525F434F554E543A3120555549443A63656465326132662D34A9
:2003E0003161322D343734382D396231322D6335356336326633363766660A004D696E69DC
:20040000204B6F7373656C204F66662E004D696E69204B6F7373656C2072656164792E0061
:2004200048656174696E6720646F6E652E003F0020573A0048656174696E672E2E2E004D81
:20044000696E69204B6F7373656C2072656164792E006F6B004D3131332053004B494C4C0D
:2004600045442E20004543484F00494E464F004552524F52530044525952554E00434F4DBA
:200480004D554E49434154494F4E006F66660065046A046F0476047D0444454255473A0044
:2004A00048656174696E672E2E2E004D696E69204B6F7373656C2072656164792E002569E3
:2004C000206D696E2C2025692073656300456E642066696C65206C69737400426567696EEB
:2004E0002066696C65206C697374004E6F206D6F76652E004D696E69204B6F7373656C2060
:2005000072656164792E00526573756D696E67207072696E74005761697420666F72207570
:200520007365722E2E2E0054455354005761726E696E673A20486F6D696E672042756D7061
:200540002044697669736F72203C203100536C6565702E2E2E0020403A00202F0020543AD4
:2005600000627573793A2070617573656420666F7220696E70757400627573793A20706137
:200580007573656420666F72207573657200627573793A2070726F63657373696E670022E8
:2005A0000A00556E6B6E6F776E20636F6D6D616E643A20220020496E76616C6964206578E2
:2005C0007472756465722000256920686F757273202569206D696E7574657300446F6E652D
:2005E000207072696E74696E672066696C65004B494C4C45442E200053544F505045442E60
:2006000020005072696E7465722073746F707065642064756520746F206572726F72732E6B
:200620002046697820746865206572726F7220616E6420757365204D39393920746F20725B
:200640006573746172742E202854656D70657261747572652069732072657365742E205323
:2006600065742069742061667465722072657374617274696E6729004E6F204C696E652061
:200680004E756D626572207769746820636865636B73756D2C204C617374204C696E653AE0
:2006A00020004E6F20436865636B73756D2077697468206C696E65206E756D6265722C2071
:2006C0004C617374204C696E653A2000636865636B73756D206D69736D617463682C204C23
:2006E000617374204C696E653A20004C696E65204E756D626572206973206E6F74204C6165
:200700007374204C696E65204E756D6265722B312C204C617374204C696E653A20004D3105
:20072000313000446F6E6520736176696E672066696C652E004D3239002020506C616E6E4B
:20074000657242756666657242797465733A20002046726565204D656D6F72793A2000442E
:200760006563203136203230313600436F6D70696C65643A2000286E6F6E652C2064656667
:2007800061756C7420636F6E6669672900207C20417574686F723A2000323031362D303401
:2007A0002D32342031323A303000204C61737420557064617465643A200020312E312E3086
:2007C0002D524336004D61726C696E0020536F6674776172652052657365740020576174E4
:2007E0006368646F67205265736574002042726F776E206F75742052657365740020457831
:200800007465726E616C20526573657400506F7765725570007374617274002200656E71C9
:2008200075657565696E672022000101010000A0400000A0400000A040000048430000480E
:2008400043004083430000000000000000004083430000C8420000C842004083430000C867
:20086000C20000C8C2000000006563686F3A004572726F723A007C3C3E5E2B3D3F2F5B5D2D
:200880003B2C2A225C004D383420582059205A20450043616E6E6F7420656E74657220738C
:2008A00075626469723A20006175746F25692E67006572726F722077726974696E6720740A
:2008C0006F2066696C65004E6F74205344207072696E74696E67005344207072696E746929
:2008E0006E672062797465200044656C6574696F6E206661696C65642C2046696C653A2050
:200900000046696C652064656C657465643A006F70656E206661696C65642C2046696C6523
:200920003A200057726974696E6720746F2066696C653A20002E0A006F70656E2066616922
:200940006C65642C2046696C653A20002E0A006F70656E206661696C65642C2046696C6501
:200960003A200046696C652073656C6563746564002053697A653A200046696C65206F70A0
:20098000656E65643A20006F70656E206661696C65642C2046696C653A20004E6F7720664A
:2009A000726573682066696C653A20004E6F7720646F696E672066696C653A20002220703A
:2009C0006F73002220706172656E743A2200535542524F5554494E452043414C4C207461CC
:2009E000726765743A22004B494C4C45442E2000747279696E6720746F2063616C6C2073F7
:200A000075622D67636F64652066696C6573207769746820746F6F206D616E79206C657613
:200A2000656C732E204D4158206C6576656C2069733A004D3234004D32332025730053441C
:200A40002063617264206F6B006F70656E526F6F74206661696C656400766F6C756D652E41
:200A6000696E6974206661696C656400534420696E6974206661696C0020204D32303020D7
:200A800044300020204D3230302044002044697361626C65640046696C616D656E74207364
:200AA000657474696E67733A00204C0020430020440020490020204D333031205000504938
:200AC000442073657474696E67733A0020460020420020204D3134352053312048002046A6
:200AE0000020420020204D3134352053302048004D6174657269616C20686561747570206C
:200B0000706172616D65746572733A0020430020420020410020530020520020204D363663
:200B200035204C0044656C74612073657474696E67733A204C3D646961676F6E616C5F72A6
:200B40006F642C20523D7261646975732C20533D7365676D656E74735F7065725F736563DD
:200B60006F6E642C204142433D646961676F6E616C5F726F645F7472696D5F746F77657257
:200B80005F5B3132335D00205A0020590020204D363636205800456E6473746F702061644C
:200BA0006A7573746D656E7420286D6D293A00205A0020590020204D323036205800486FEF
:200BC0006D65206F666673657420286D6D293A00204500205A0020580020420020540020CA
:200BE000204D323035205300416476616E636564207661726961626C65733A20533D4D69EF
:200C00006E20666565647261746520286D6D2F73292C20543D4D696E2074726176656C204A
:200C2000666565647261746520286D6D2F73292C20423D6D696E696D756D207365676D658F
:200C40006E742074696D6520286D73292C20583D6D6178696D756D205859206A65726B20F6
:200C6000286D6D2F73292C20205A3D6D6178696D756D205A206A65726B20286D6D2F732973
:200C80002C2020453D6D6178696D756D2045206A65726B20286D6D2F732900205400205264
:200CA0000020204D323034205000416363656C65726174696F6E733A20503D7072696E7450
:200CC000696E672C20523D7265747261637420616E6420543D74726176656C0020450020EF
:200CE0005A0020590020204D3230312058004D6178696D756D20416363656C65726174699E
:200D00006F6E20286D6D2F7332293A00204500205A0020590020204D3230332058004D61FD
:200D200078696D756D2066656564726174657320286D6D2F73293A00204500205A00205931
:200D40000020204D393220580053746570732070657220756E69743A0048617264636F64DE
:200D600065642044656661756C742053657474696E6773204C6F616465640020746F6F2059
:200D80006C6F6E6720657874727573696F6E2070726576656E7465640020636F6C6420655E
:200DA0007874727573696F6E2070726576656E746564004D383420582059205A20450045EC
:200DC0006E6473746F70732025632025632025632025630020503A00205A3A0020593A0057
:200DE00020583A00656E6473746F7073206869743A200024F4D43050C38E20C2A2401782F8
:200E00008B7011127A910D816CD90AA861E108C7586607615143061E4B5D05C145A7041ABD
:200E2000411104093D9803713931034036DB0265339102D4305402802E1D02632CEE017505
:200E40002AC501B028A001102781018F2564012B244B01E0223401AC211F018D200D01805D
:200E60001FFC00841EED00971DDF00B81CD200E61BC600201BBC00641AB200B219A8000A24
:200E800019A0006A189900D117910040178B00B516840031167E00B31579003A157300C745
:200EA000146F0058146A00EE1366008813630025135E00C7125B006C12570015125400C199
:200EC00011510070114F0021114B00D61049008D1047004610440002104200C00F400080D3
:200EE0000F3E00420F3C00060F3B00CB0E3800930E37005C0E3500270E3400F30D3200C1E4
:200F00000D3100900D3000600D2E00320D2D00050D2C00D90C2B00AE0C2900850C29005C78
:200F20000C2700350C27000E0C2600E80B2400C40B2400A00B23007D0B23005A0B21003994
:200F40000B2100180B2000F80A1F00D90A1E00BB0A1E009D0A1D00800A1D00630A1C0047E2
:200F60000A1B002C0A1B00110A1A00F7091A00DD091900C4091900AB091900920917007BCD
:200F8000091800630917004C09160036091600200916000A091500F5081500E0081400CCAC
:200FA000081400B8081400A4081400900813007D0812006B081300580812004608120034B3
:200FC000081100230811001208110001081100F0071000E0071000D0071000C0071000B00B
:200FE000070F00A107100091070E0083070F0074070F0065070E0057070E0049070E003BDB
:20100000070D002E070E0020070D0013070D0006070D00F9060C00ED060D00E0060C00D433
:20102000060C00C8060C00BC060C00B0060C00A4060B0099060C008D060B0082060B00772C
:20104000060B006C060B0061060A0057060B004C060A0042060A0038060A002E060A0024D1
:20106000060A001A060A001006090007060A00FD050900F4050900EB050900E2050900D931
:20108000050900D0050900C7050900BE050900B5050800AD050800A50509009C0508009457
:2010A0000508008C050800840508007C050800740508006C050700650508005D0507005646
:2010C0000508004E050700470507004005080038050700310507002A050700230507001C07
:2010E000050600160507000F0507000805060002050700FB040600F5040700EE040600E8A2
:20110000040600E2040700DB040600D5040600CF040600C9040600C3040600BD040600B71D
:20112000040600B1040500AC040600A6040600A00405009B04060095040500900406008A75
:2011400004050085040500800406007A04050075040500700405006B0405006604050061B0
:201160000405005C04050057040500520405004D04050048040500430405003E0404003AD3
:2011800004050035040500300404002C04050027040400230405001E0404001A04040016E2
:2011A000040500110404000D040400090405000404040000040400FC030400F8030400F4DC
:2011C000030400F0030400EC030400E8030400E4030400E0030400DC030400D8030400D4C7
:2011E000030400D0030400CC030400C8030300C503030024F404D9201BC40C5C0E9804C4DB
:20120000095F0265077101F405F900FB04B30048048700C10369005803550003034500BE29
:20122000023A008402310053022A002902250004022000E4011C00C8011900AF0117009884
:2012400001140084011300710110006101100051010E0043010D0036010B002B010B0020A3
:20126000010B00150109000C01090003010800FB000800F3000800EB000700E4000600DE69
:20128000000600D8000600D2000600CC000500C7000500C2000500BD000400B9000400B5FB
:2012A000000400B1000400AD000400A9000400A5000300A20003009F0004009B00030098F1
:2012C0000003009500020093000300900003008D0002008B00030088000200860002008498
:2012E000000300810002007F0002007D0002007B000200790002007700010076000200740C
:2013000000020072000100710002006F0002006D0001006C0002006A00010069000200675B
:201320000001006600010065000100640002006200010061000100600001005F0002005D95
:201340000001005C0001005B0001005A0001005900010058000100570001005600010055C1
:201360000001005400010053000000530001005200010051000100500001004F0001004EDC
:201380000000004E0001004D0001004C0001004B0000004B0001004A0001004900010048EF
:2013A0000000004800010047000100460000004600010045000000450001004400010043FC
:2013C0000000004300010042000000420001004100000041000100400001003F0000003F02
:2013E0000001003E0000003E0001003D0000003D0001003C0000003C0000003C0001003B04
:201400000000003B0001003A0000003A000100390000003900010038000000380000003800
:201420000001003700000037000100360000003600000036000100350000003500000035FA
:201440000001003400000034000000340001003300000033000000330001003200000032F0
:20146000000000320001003100000031000000310001003000000030000000300001002FE5
:201480000000002F0000002F0000002F0001002E0000002E0000002E0001002D0000002DD9
:2014A0000000002D0000002D0001002C0000002C0000002C0000002C0001002B0000002BCA
:2014C0000000002B0000002B0001002A0000002A0000002A0000002A0001002900000029BA
:2014E0000000002900000029000000290001002800000028000000280000002800000028A8
:20150000000100270000002700000027000000270000002700010026000000260000002694
:20152000000000260000002600010025000000250000002500000025000000250000002580
:2015400000010024000000240000002400000024000000240001002300000023000000236C
:20156000000000230000002300000023000000230001002200000022000000220000002256
:20158000000000220000002200010021000000210000002100000021000000210000002140
:2015A000000000210001002000000020000000200000002000000020000000200000002029
:2015C000000000200001001F0000001F0000001F0000001F0000001F0000001F0000001F11
:2015E0000001001E0000001E0000001E0000001E000000546865726D616C2052756E617778
:20160000617900544845524D414C2052554E415741590048656174696E67206661696C65BB
:20162000640048656174696E67206661696C6564004D494E54454D502074726967676572D3
:201640006564004572723A204D494E54454D5000626564002C2073797374656D2073746F92
:201660007070656421204865617465725F49443A20004D415854454D502074726967676523
:20168000726564004572723A204D415854454D500023646566696E65202044454641554CF1
:2016A000545F4B64200023646566696E65202044454641554C545F4B6920002364656669E7
:2016C0006E65202044454641554C545F4B702000504944204175746F74756E652066696E09
:2016E0006973686564212050757420746865206C617374204B702C204B6920616E64204B95
:201700006420636F6E7374616E74732066726F6D2062656C6F7720696E746F20436F6E66DB
:20172000696775726174696F6E2E6800504944204175746F74756E65206661696C65642149
:201740002074696D656F757400504944204175746F74756E65206661696C65642120546591
:201760006D706572617475726520746F6F206869676800204B643A2000204B693A200020EB
:201780004B703A200020436C61737369632050494420002054753A2000204B753A20002098
:2017A0006D61783A2000206D696E3A200020643A200020626961733A200040012C017301F2
:2017C0002201AB011801F3010E0148020401AC02FA002A03F000C303E6008004DC006D058C
:2017E000D2006C06C800C707BE007009B4006D0BAA00CB0DA000CF138C00F21B7800E9248A
:201800006400142E50009C353C00B83A2800A03D14000B3F0000436172642072656D6F76AD
:201820006564004361726420696E736572746564004D343238002D2D2D2D2D2D007C4D61C4
:20184000726C696E7C002D2D2D2D2D2D0020312E312E302D5243360020003F002D2D3A2D23
:201860002D002D2D2D005344005A00590020005800012000466C6F7700466C6F77004661FA
:201880006E2073706565640046616E207370656564004E6F7A7A6C65004E6F7A7A6C65005F
:2018A0005370656564005370656564004D61696E004D6F76652058004D6F76652059004D55
:2018C0006F7665205A004578747275646572004578747275646572004D6F7665205A004D40
:2018E0006F76652059004D6F76652058004D6F76652061786973004D6F766520302E316DF7
:201900006D004D6F766520316D6D004D6F76652031306D6D0050726570617265004D383022
:201920000053776974636820706F776572206F6E004D38310053776974636820706F7765E8
:2019400072206F666600436F6F6C646F776E005072656865617420414253005072656865C2
:20196000617420504C41004D38340044697361626C65207374657070657273004D6F7665FB
:2019800020617869730053657420686F6D65206F66667365747300473238004175746F20F9
:2019A000686F6D65004D61696E004E6F7A7A6C65004E6F7A7A6C650046616E207370656513
:2019C000640046616E2073706565640054656D7065726174757265004E6F7A7A6C65004EFF
:2019E0006F7A7A6C650046616E2073706565640046616E2073706565640054656D706572BA
:201A0000617475726500507265686561742041425320636F6E6600507265686561742050E7
:201A20004C4120636F6E66005049442D43005049442D43005049442D44005049442D44001D
:201A40005049442D49005049442D49005049442D50005049442D500020022046616374006C
:201A600020022046616374002002204D6178002002204D6178002002204D696E002002202E
:201A80004D696E004175746F74656D70004F6666004F6E200046616E20737065656400464F
:201AA000616E207370656564004E6F7A7A6C65004E6F7A7A6C6500436F6E74726F6C0045FC
:201AC00073746570732F6D6D004573746570732F6D6D005A73746570732F6D6D005A73747E
:201AE0006570732F6D6D005973746570732F6D6D005973746570732F6D6D0058737465705F
:201B0000732F6D6D005873746570732F6D6D00412D74726176656C00412D74726176656CC1
:201B200000412D7265747261637400412D7265747261637400416D6178204500416D61786C
:201B4000204500416D6178205A00416D6178205A00416D6178205900416D617820590041DD
:201B60006D6178205800416D61782058005654726176206D696E005654726176206D696EFA
:201B800000566D696E00566D696E00566D6178204500566D6178204500566D6178205A00F9
:201BA000566D6178205A00566D6178205900566D6178205900566D6178205800566D617835
:201BC00020580056652D6A65726B0056652D6A65726B00567A2D6A65726B00567A2D6A65F0
:201BE000726B005678792D6A65726B005678792D6A65726B00416363656C00416363656C18
:201C000000436F6E74726F6C0046696C2E204469612E0046696C2E204469612E00452069CB
:201C20006E206D6D33004F6666004F6E2000436F6E74726F6C00526573746F726520666165
:201C4000696C736166650046696C616D656E74004D6F74696F6E0054656D706572617475B3
:201C60007265004D61696E00052E2E004D61696E004E6F2053442063617264005072696E5B
:201C8000742066726F6D2053440053746F70207072696E7400526573756D65207072696E08
:201CA00074005061757365207072696E7400436F6E74726F6C0050726570617265005475EC
:201CC0006E6500496E666F2073637265656E0000000A0B02090C0D0E0807030401000000A7
:201CE0000000000000000000000000000000000000000000000000000000001211100000B1
:201D00000000000000000000000000000000000000000000000102102020080810204010E0
:201D20002040800201020108040201010204081020408080402010080402018004020180A9
:201D40004020100804020108040201010204081020408001020408102040800505050507DC
:201D60000508080808020202020A0A080804040404010101010101010103030303030303E5
:201D800003040707070C0C0C0C0C0C0C0C0202020206060606060606060B0B0B0B0B0B0B42
:201DA0000B000020002300260029002C002F0032000001000003010601090100002200259C
:201DC0000028002B002E003100340002010000050108010B0100002100240027002A002D3C
:201DE000003000330001010000040107010A014E414E494E495459494E46CDCCCC3D0AD79C
:201E0000233C17B7D13877CC2B329595E6241FB14F0A000020410000C84200401C4620BCA6
:201E2000BE4CCA1B0E5AAEC59D74DC38848C943911241FBECFEFD1E2DEBFCDBF00E00CBF7F
:201E400014E0A0E0B2E0E0E5FDE701E00BBF02C007900D92A438B107D9F724E1A4E8B4E0A7
:201E600001C01D92A431B207E1F71EE1CEE2DEE100E006C022970109FE010BBF0E9478B81A
:201E8000CA32D10780E00807A9F70E944AB30C9497BE0C9400001F920F920FB60F9211243E
:201EA0000BB60F922F933F938F939F93EF93FF932091C6009FB7F894E091050581E08E0FF2
:201EC0008F7730910605831731F0F0E0EB57FB4F2083809305059FBFFF91EF919F918F919B
:201EE0003F912F910F900BBE0F900FBE0F901F9018959A01AB01211581EE380741055105BC
:201F000049F182E08093C00060E079E08DE390E00E9431B82150310941095109CA01B9017A
:201F200022E030E040E050E00E9431B83093C5002093C4008091C10080618093C10080911D
:201F4000C10088608093C1008091C10080688093C10008951092C00020E130E0E7CF3FB7BA
:201F6000F8942091060580910505821759F0E22FF0E0EB57FB4F808190E02F5F2F77209357
:201F8000060502C08FEF9FEF3FBF08958FB7F89490910605909305058FBF08954F925F92E5
:201FA0006F927F928F929F92AF92BF92CF92DF92EF92FF920F931F93CF93DF93CDB7DEB706
:201FC000A0970FB6F894DEBF0FBECDBF5C014115510561057105E9F420E030E040E350E05E
:201FE00060E070E0A0960FB6F894DEBF0FBECDBFDF91CF911F910F91FF90EF90DF90CF90D8
:20200000BF90AF909F908F907F906F905F904F905BC08E010F5F1F4FC12CD12C76014801D8
:20202000422E512C612C712C8FEFC81AD80AE80AF80ACB01BA01A30192010E940FB8CA0161
:20204000F80161938F01A901BC01411551056105710551F7F1E0CF1AD108E108F108F40162
:20206000EC0DFD1D80818A3010F440E301C047E3480F552747FD5095652F752F20E030E03C
:20208000C50122D081E0C81AD108E108F108EFEFCE16DE06EE06FE0611F7A0960FB6F8945D
:2020A000DEBF0FBECDBFDF91CF911F910F91FF90EF90DF90CF90BF90AF909F908F907F9043
:2020C0006F905F904F9008952115310539F48091C00085FFFCCF4093C60008952A30310517
:2020E00009F41CC05BCFCF93DF93EC0120E030E04DE050E060E070E0E7DF20E030E04AE01F
:2021000050E060E070E0CE01DF91CF91DDCF9A01AB01662757FD6095762FD6CFCF92DF927B
:20212000EF92FF92CF93DF93EC016A017B0177FF0FC020E030E04DE250E060E070E0C4DFFE
:20214000F094E094D094C094C11CD11CE11CF11C2AE0B701A601CE01DF91CF91FF90EF90E5
:20216000DF90CF901BCF2115310539F48091C00085FFFCCF4093C600089510CF9A01462FC9
:2021800050E060E070E0EFCFCF93DF93EC019A01AB0160E070E0E7DFCE01DF91CF91A3CF52
:2021A0008F929F92AF92BF92CF92DF92EF92FF921F93CF93DF93EC016A017B01122F20E0BC
:2021C00030E0A901C701B6010E9432B487FF0CC020E030E04DE250E060E070E0CE0174DFCB
:2021E000F7FAF094F7F8F094B12C60E070E080E09FE3B11641F020E030E040E251E40E94A7
:2022000039B4B394F6CF9B01AC01C701B6010E9459B36B017C010E94A6B44B015C010E941F
:20222000D2B49B01AC01C701B6010E9458B36B017C012AE0B501A401CE01B0DE112341F093
:2022400020E030E04EE250E060E070E0CE013CDF112319F120E030E040E251E4C701B60170
:202260000E9407B76B017C010E94A1B44B01AA2497FCA094BA2CB501A401CE014FDFC50139
:20228000B4010E94D4B49B01AC01C701B6010E9458B36B017C011150DBCFDF91CF911F9176
:2022A000FF90EF90DF90CF90BF90AF909F908F90089576CFFC0165917591859194910895B3
:2022C000CF92DF92EF92FF920F931F93CF93DF93EC01CC0FDD1FCC0FDD1FFE01E252FA4FDB
:2022E000DE01A651BA4F2D913D914D915C9160817181828193810E9459B36B017C01CE0158
:20230000835A974FD7DF8E01065D1D4FA70196010E9459B3F8016083718382839383CE013F
:202320008F5A974FC7DFC25EDD4FA70196010E9459B3688379838A839B83DF91CF911F915D
:202340000F91FF90EF90DF90CF9008950E9484B06093CF057093D0058093D1059093D2050C
:202360000895FC012491222341F03091C00035FFFCCF2093C6000196F4CF4AE050E084E87F
:2023800094E0C5CEFC012491222341F03091C00035FFFCCF2093C6000196F4CF22E030E0A9
:2023A00084E894E086CFFC012491222341F03091C00035FFFCCF2093C6000196F4CF2AE063
:2023C00030E084E894E0CFCE20917F0730918007F901EE58FA4F8083C901019664E070E070
:2023E0000E94FCB79093800780937F0780917D0790917E07019690937E0780937D07089597
:20240000CF93FC01C62F80818B33D9F020917D0730917E0724303105A4F440917F0750910B
:20242000800780E6849F9001859F300D1124BF01C90183509A4F0E94AEBB8C2FC5DF81E054
:2024400001C080E0CF910895CF93DF93D82FC92FD7DF882309F43CC0E9E6F8E084918823CA
:2024600041F09091C00095FFFCCF8093C6003196F5CFEDE1F8E08491882341F09091C0000F
:2024800095FFFCCF8093C6003196F5CFED2FFC2F8191882339F09091C00095FFFCCF8093F9
:2024A000C600F6CFEBE1F8E08491882341F09091C00095FFFCCF8093C6003196F5CF809147
:2024C000C00085FFFCCF8AE08093C60081E001C080E0DF91CF910895DF92EF92FF920F9396
:2024E0001F93CF93DF93CDB7DEB76E970FB6F894DEBF0FBECDBF6091D3057091D4056115D8
:20250000710559F14DE150E08E010F5F1F4FC8010E943DBB1E8EF8017F01E01AF10AD19054
:20252000DD2019F08AE0D812F7CFF801EE0DFF1D108260E0C80188DF882379F0DD20B1F0B7
:202540008FEFE81AF80A8091D3059091D4058E0D9F1D9093D4058093D30581E02091D305EE
:202560003091D405232B39F480E005C01092D4051092D305F2CF6E960FB6F894DEBF0FBEAC
:20258000CDBFDF91CF911F910F91FF90EF90DF9008959093D4058093D3059ECF9898A09AB7
:2025A0000895269A2E9808952F923F924F925F926F927F928F929F92AF92BF92CF92DF922F
:2025C000EF92FF920F931F93CF93DF93CDB7DEB7A0970FB6F894DEBF0FBECDBF8091BC0756
:2025E000882309F42FC180917D0790917E07892B11F410920A0521E028A34091380A5091DE
:20260000390A60913A0A70913B0A8091340A9091350AA091360AB091370A481759076A072A
:202620007B0708F418A200E010E09CE3C92ED12CE12CF12C20E1222E2EE0322E412C512C4C
:20264000CE0101963C0180917D0790917E0704970CF0F8C028A12111F5C080910A058111EB
:20266000F1C080918F0990919009A0919109B09192098093380A9093390AA0933A0AB0932A
:202680003B0A87E899E00E945B3E8F8FA1E0A8A38090380A9090390AA0903A0AB0903B0A3A
:2026A0004091340A5091350A6091360A7091370A84169506A606B70630F418A28F3FBFEF80
:2026C0009B0721F47FC0ECEDF5E018C02F8D2A3009F47EC02D3009F47BC0233219F02A33DD
:2026E00009F090C02091090521118CC06BC09091C00095FFFCCF8093C600319684918111A2
:20270000F6CF8091C00085FFFCCF4AE04093C6008FEB95E00E9488758FEB95E00E94AE75CF
:202720004C01A12CB12CC501B401A70196010E940FB8CA01B901A70196010E940FB87F9340
:202740006F93C501B401A20191010E940FB83F932F93A8ECB5E0BF93AF937F926F920E9459
:20276000D2BB0FB6F894DEBF0FBECDBFE9E6F8E08491882341F09091C00095FFFCCF80939A
:20278000C6003196F5CFF3018191882339F09091C00095FFFCCF8093C600F6CF8091C0005F
:2027A00085FFFCCF9AE09093C60061E0C3010E947E868AEB97E00E94CB5461E08AEB97E0E2
:2027C0000E94524FAF8DA33219F4B1E0B0930A05109209050115110509F435CF80917F0741
:2027E0009091800720E6289FF001299FF00D1124E00FF11FE350FA4F108280E0E5DD00E06A
:2028000010E021CF0F35110508F01DCF4F8D4B3319F4A1E0A093090520910905211113CF9E
:2028200020917F0730918007B0E6B29FF001B39FF00D1124E00FF11FE350FA4F80830F5FD1
:202840001F4F01CFA0960FB6F894DEBF0FBECDBFDF91CF911F910F91FF90EF90DF90CF90C1
:20286000BF90AF909F908F907F906F905F904F903F902F9008950F931F93CF93DF930091BC
:20288000D5051091D60565E470E0C8010E949ABBEC01C8010196209761F0188260E070E00A
:2028A0000E947CB825E42883DF91CF911F910F91089560E070E0DF91CF911F910F910C9481
:2028C0007CB88091D5059091D6054AE050E060E070E001960C94E4B98091D5059091D60538
:2028E0004AE050E060E070E001960E94E4B9CB010895682F772767FD709580918307909155
:2029000084070E949ABB9093D6058093D50521E0892B09F420E0822F08950F931F93CF9394
:20292000DF938C0184E5E5DF882361F1D5DFEC01181619064CF5E9E6F8E08491882341F0A7
:202940009091C00095FFFCCF8093C6003196F5CF8091C00085FFFCCF8DE48093C6004AE03F
:2029600050E0B80184E894E0D2DBBE0185EB95E0F8DC8091C00085FFFCCF8AE08093C60006
:2029800081E005C08091DB058093BE0580E0DF91CF911F910F9108950F931F93CF93DF9305
:2029A00000D000D0CDB7DEB726E0E1EBF2E0DE01119601900D922A95E1F7FC01EE0FFF1F55
:2029C00021E030E02C0F3D1FE20FF31F60817181161617061CF1E9E6F8E02491222341F051
:2029E0003091C00035FFFCCF2093C6003196F5CFECE2F5E02491222341F03091C00035FFD0
:202A0000FCCF2093C6003196F5CF2091C00025FFFCCF2AE02093C6006AE070E08C01000FCE
:202A2000111F000F111F0F511C4F882777FD8095982F0E94D4B49B01AC01F801608171811E
:202A4000828193810E9439B46093420270934302809344029093450226960FB6F894DEBFE4
:202A60000FBECDBFDF91CF911F910F910895CF92EF92FF920F931F9320E030E040E752E40C
:202A8000609142027091430280914402909145020E9439B4C090DB057B018C0121EA37E012
:202AA0004DE957E069E977E085E997E00E9426611F910F91FF90EF90CF90089521EB37E075
:202AC0004DEA57E069EA77E085EA97E00C94F36A4F925F926F927F928F929F92AF92BF9233
:202AE000CF92DF92EF92FF920F931F93CF93DF938C01FC01E65DF74FF490EC01CC0FDD1F6F
:202B0000CC0FDD1F9E012B55384F6901F9011082118212821382D2DFCE01875C974FCADB98
:202B20002B013C016F2D772767FD7095872F972F0E94D4B44B015C019E012B56384F790119
:202B400020E030E040EC5FE3C301B2010E9407B7A50194010E9407B7F701608371838283B1
:202B60009383FE01EF51FC4F80819181A281B3818093420290934302A0934402B093450289
:202B800076DF0E94E974F601108211821282138295DF80E00E94236C9E01235D374F690188
:202BA000C90188DB9058A50194010E9407B7F70160837183828393835ADF0E94E97481E0E2
:202BC0000E94236CC801E8DEC60174DB9B01AC010E9459B3A50194010E9407B7F7016083B2
:202BE00071838283938343DF0E94E9749E012A553A4F6901F9012081318142815381C501EA
:202C0000B4010E9407B720E030E0A9010E9432B487FF14C080E00E94236C50DFF60180814B
:202C20009181A281B381F70180839183A283B3831EDF0E94E97481E00E94236CFE01E651FD
:202C4000FA4F1082118212821382CE018B5B974F31DB9E012B55384F7901FE01E252FA4F9A
:202C600020813181428153810E9459B3F7016083718382839383C80123DB20DFCB56D84FC4
:202C8000F70180819181A281B38188839983AA83BB831092420210924302109244021092E9
:202CA00045020E942B6CF801EE56F84F81E08083F801E157F84F8083DF91CF911F910F9111
:202CC000FF90EF90DF90CF90BF90AF909F908F907F906F905F904F90089580E1E5E9F7E0BD
:202CE000A5EAB7E001900D928A95E1F70895CF92DF92EF92FF920F931F93CF93DF936DED84
:202D0000E62E63E0F62E05E917E0C5EAD7E079EFC72E75E0D72EF70181917F01EADD88233A
:202D2000C9F0A9DDF6012081211104C02091DA05222329F0288139814A815B8103C020E00B
:202D400030E0A9010E9459B3F801608371838283938309C088819981AA81BB81F8018083D1
:202D60009183A283B3830C5F1F4F2496FFEFCF1ADF0A81EEE81683E0F80669F686E4B9DD64
:202D8000882391F078DD6B017C0120E030E0A9010E9435B6181644F4C0924202D0924302DF
:202DA000E0924402F0924502DF91CF911F910F91FF90EF90DF90CF900895E9E6F8E084913D
:202DC000882341F09091C00095FFFCCF8093C6003196F5CFE2EAF5E08491882341F09091C0
:202DE000C00095FFFCCF8093C6003196F5CFE0918507F09186078191882339F09091C0007E
:202E000095FFFCCF8093C600F6CFEFE9F5E08491882341F09091C00095FFFCCF8093C600FE
:202E20003196F5CF0895CF92DF92EF92FF920E9484B06B017C0180910A02882309F483C0BF
:202E400020917005309171052115310509F47BC080916C0590916D05A0916E05B0916F0503
:202E6000B701A601481B590B6A0B7B0B77FD7EC02330310579F03CF4213031050CF463C0B3
:202E8000E9E6F8E011C02430310509F05CC0E9E6F8E042C0E9E6F8E023C09091C00095FF73
:202EA000FCCF8093C600319684918111F6CFEEE8F5E08491882341F09091C00095FFFCCF5F
:202EC0008093C6003196F5CF8091C00085FFFCCF37C09091C00095FFFCCF8093C600319697
:202EE00084918111F6CFE8E7F5E08491882341F09091C00095FFFCCF8093C6003196F5CF2D
:202F00008091C00085FFFCCF1BC09091C00095FFFCCF8093C600319684918111F6CFE1E6A3
:202F2000F5E08491882341F09091C00095FFFCCF8093C6003196F5CF8091C00085FFFCCF07
:202F40008AE08093C60020910A0230E0A8EEB3E00E9453B86C0D7D1D8E1D9F1D60936C05AD
:202F600070936D0580936E0590936F05FF90EF90DF90CF900895EBEDF4E08491882341F0A9
:202F80009091C00095FFFCCF8093C6003196F5CF8091C00085FFFCCF8AE08093C6008AEBB5
:202FA00097E00E94964BEDECF4E08491882341F09091C00095FFFCCF8093C6003196F5CFD5
:202FC0008091C00085FFFCCF8AE08093C6000895EF92FF920F931F93CF93DF93CDB7DEB79E
:202FE0006E970FB6F894DEBF0FBECDBF8FEB95E00E94AE75BC0180E090E02CE330E040E005
:2030000050E00E940FB87F936F933F932F938EEB94E09F938F938E010F5F1F4F1F930F936F
:203020000E94D2BB0FB6F894DEBF0FBECDBFE9E6F8E08491882341F09091C00095FFFCCF42
:203040008093C6003196F5CFF8018191882339F09091C00095FFFCCF8093C600F6CF80913E
:20306000C00085FFFCCF8AE08093C60060E0C8010E947E8680914F11882329F110924F1117
:20308000E090DB05F12C8701000F111F0A5A1C4EF80160817181882777FD8095982F0E94C1
:2030A000D4B420914B0230914C0240914D0250914E020E9435B6181634F4F8011182108229
:2030C000C7010E94B5796E960FB6F894DEBF0FBECDBFDF91CF911F910F91FF90EF90089542
:2030E0001F93CF93DF938091BC0781110E94E974C0918307D091840761E270E0CE010E941A
:203100009ABB009711F0EC01219680E5F2DB882341F011E08091D5059091D6058C179D07F1
:2031200008F010E08091BD07882391F1212F41E0BE018AEB97E00E94905083E5DADB88233F
:2031400039F08091D5059091D6058C179D0768F08AEB97E00E94074D11111AC08FEB95E0F3
:20316000DF91CF911F910C94D575B6DBAC01662757FD6095762F4093380A5093390A6093FE
:203180003A0A70933B0A87E899E00E94283FE0CFDF91CF911F9108950F931F93CF93DF93BE
:2031A00083E5A7DB882371F197DB8C018F3F910509F040F580E59DDB882329F08DDBEC0191
:2031C00097FD20C002C0CDE0D0E0E7EAF3E081919191C817D907B1F083E0ED3DF807B9F7E8
:2031E00061E08C2F0E946DB2602F8C2F0E94A6B2B8018C2F0E9457B1299721F41093DD0556
:203200000093DC05DF91CF911F910F910895CF92DF92EF92FF920F931F93CF93DF9388E603
:2032200090E07BDB811152C08091B90783FD4EC083E55FDB882309F449C01DDB6B017C0191
:203240000091BE0510E0E801CC0FDD1FCA5ADC4E0E94A1B479836883C8010E94B57920E0A5
:2032600030E04AEA52E4C701B6010E9432B4181654F08FEB95E00E94887560E08BEA94E0A4
:203280000E94D08604C08FEB95E00E94D575E091BE0584E0E89FF0011124E45CFC4E208127
:2032A000318142815381C701B6010E9435B618166CF460E080EA94E0DF91CF911F910F91ED
:2032C000FF90EF90DF90CF900C94D086DF91CF911F910F91FF90EF90DF90CF900895EDE5B1
:2032E000F5E08491882341F09091C00095FFFCCF8093C6003196F5CFE091BE0584E0E89F45
:20330000F0011124E45CFC4E408151816281738121E030E084E894E00E945911EAE5F5E0F2
:203320008491882341F09091C00095FFFCCF8093C6003196F5CFE091BE05F0E0EE0FFF1FD9
:20334000EA5AFC4E60817181882777FD8095982F0E94D4B4AB01BC0121E030E084E894E089
:203360000E945911E6E5F5E08491882341F09091C00095FFFCCF8093C6003196F5CF8091FB
:20338000BE0590E00E94D7764AE050E0BC0184E894E00C94871089E690E0BFDA811115C0FE
:2033A000E2E5F4E08491882341F09091C00095FFFCCF8093C6003196F5CF91DF8091C0009C
:2033C00085FFFCCF8AE08093C600089583E591DA882311F081DA01C080E08093B907E9E621
:2033E000F8E08491882341F09091C00095FFFCCF8093C6003196F5CFE9E9F4E084918823FA
:2034000041F09091C00095FFFCCF8093C6003196F5CF8091B907811103C0EBE8F4E03BC00F
:203420002FE834E080E090E060E0ACE24091B90750E0082E02C0559547950A94E2F740FF8E
:203440001AC071E0760F662331F04091C00045FFFCCFA093C600F90145915491FA016491D4
:20346000662351F0E091C000E5FFFCCF6093C6004F5F5F4FF3CF762F01962E5F3F4F8530BF
:20348000910561F0672FD2CF9091C00095FFFCCF8093C600319684918111F6CF8091C000F1
:2034A00085FFFCCF8AE08093C600089583E521DA811103C0E9E6F8E00EC00EDA8D3308F010
:2034C0008CE380930A0208959091C00095FFFCCF8093C600319684918111F6CF40910A0298
:2034E00050E060E070E085E594E00E94D3118091C00085FFFCCF8AE08093C600089583E540
:20350000F8D9882339F1E8D9823010F1EFE6F8E08491882341F09091C00095FFFCCF8093A0
:20352000C6003196F5CFE4ECF2E08491882341F09091C00095FFFCCF8093C6003196F5CF03
:203540008091C00085FFFCCF8AE08093C6000895813049F188E4CDD9882389F0BDD98A3AF0
:2035600091053CF0853021E092072CF084E091E002C08AEA90E09093FE138093FD1386E4E2
:20358000B8D98823C1F1A8D98F3F910519F014F08FEF90E097FF02C080E090E09093FA1305
:2035A0008093F913089588E4A4D9882389F094D98A3A91053CF0853021E092072CF084E080
:2035C00091E002C08AEA90E09093F8138093F71386E48FD9882379F07FD98F3F910519F0DE
:2035E00014F08FEF90E097FF02C080E090E09093F4138093F313089583E57BD9882391F0E9
:203600003AD920E030E04AE754E40E9407B70E94A6B460931A0270931B0280931C0290933F
:203620001D02089588E565D981110EC089E561D981110AC08AE55DD9811106C085E459D927
:20364000811102C00C944F750E94E97488E551D9882319F05F9A1092920789E54AD98823F8
:2036600019F08A9A109293078AE543D9882351F09FB7F894809108018160809308019FBF13
:203680001092940785E435D9882311F0129A089508953F924F925F926F927F928F929F92DD
:2036A000AF92BF92CF92DF92EF92FF920F931F93CF93DF93BDED8B2EB3E09B2EC0E9D1E152
:2036C00010EAA12E11E1B12E00E511E1312CF40181914F010ED9882309F456C0F3E03F12FC
:2036E0004EC0C9D86B017C0120E030E040EA51E40E9432B487FF3EC0A70196016881798195
:203700008A819B810E9439B42B013C019B01AC016091641170916511809166119091671143
:203720000E9407B760936411709365118093661190936711A3019201F50160817181828120
:2037400093810E9407B7F5016083718382839383F80160817181828193810E94D2B4A3015E
:2037600092010E9407B70E94A6B4F8016083718382839383C882D982EA82FB8205C07BD8C9
:20378000688379838A839B8333942496F4E0AF0EB11C0C5F1F4F84E0381299CFDF91CF9179
:2037A0001F910F91FF90EF90DF90CF90BF90AF909F908F907F906F905F904F903F900895B9
:2037C0008F929F92AF92BF92CF92DF92EF92FF92EEE2F3E08491882341F09091C00095FF18
:2037E000FCCF8093C6003196F5CF4091A5075091A6076091A7077091A80722E030E084E8C2
:2038000094E00E945911EAE2F3E08491882341F09091C00095FFFCCF8093C6003196F5CFF4
:203820004091A9075091AA076091AB077091AC0722E030E084E894E00E945911E6E2F3E085
:203840008491882341F09091C00095FFFCCF8093C6003196F5CF4091AD075091AE076091C7
:20386000AF077091B00722E030E084E894E00E945911E2E2F3E08491882341F09091C00073
:2038800095FFFCCF8093C6003196F5CF4091B1075091B2076091B3077091B40722E030E0C9
:2038A00084E894E00E9459118FB7F8944091B4115091B5116091B6117091B7118090B811B3
:2038C0009090B911A090BA11B090BB11C090BC11D090BD11E090BE11F090BF118FBFE7E107
:2038E000F3E08491882341F09091C00095FFFCCF8093C6003196F5CF2AE030E084E894E066
:203900000E946410E3E1F3E08491882341F09091C00095FFFCCF8093C6003196F5CF2AE05B
:2039200030E0B501A40184E894E00E946410EFE0F3E08491882341F09091C00095FFFCCF53
:203940008093C6003196F5CF2AE030E0B701A60184E894E00E9464108091C00085FFFCCF74
:203960008AE08093C600FF90EF90DF90CF90BF90AF909F908F900895E6E5F3E08191882354
:2039800039F09091C00095FFFCCF8093C600F6CF8091C00085FFFCCF8AE08093C600E7E0F6
:2039A000F3E08491882341F09091C00095FFFCCF8093C6003196F5CF649903C0E7E4F3E041
:2039C00009C0E1E5F3E006C09091C00095FFFCCF8093C60081918111F7CF8091C00085FFE7
:2039E000FCCF8AE08093C600EFEFF2E08491882341F09091C00095FFFCCF8093C600319638
:203A0000F5CF8091030180FD03C0E7E4F3E009C0E1E5F3E006C09091C00095FFFCCF809374
:203A2000C60081918111F7CF8091C00085FFFCCF8AE08093C600E7EFF2E08491882341F05A
:203A40009091C00095FFFCCF8093C6003196F5CF4B9903C0E7E4F3E009C0E1E5F3E006C055
:203A60009091C00095FFFCCF8093C60081918111F7CF8091C00085FFFCCF8AE08093C60060
:203A8000EFEEF2E08491882341F09091C00095FFFCCF8093C6003196F5CF4A9903C0E7E471
:203AA000F3E009C0E1E5F3E006C09091C00095FFFCCF8093C60081918111F7CF8091C000B7
:203AC00085FFFCCF8AE08093C600E5EEF2E08491882341F09091C00095FFFCCF8093C600A5
:203AE0003196F5CF359903C0E7E4F3E009C0E1E5F3E006C09091C00095FFFCCF8093C600CB
:203B000081918111F7CF8091C00085FFFCCF8AE08093C600089583E50E9479148823F9F010
:203B20000E943B14AB01BC01409378115093791160937A1170937B1140937011509371119C
:203B400060937211709373118CE992E00E94C2118091C00085FFFCCF8AE08093C60080E544
:203B60000E9479148823B9F00E943B14AB01BC01409378115093791160937A1170937B1192
:203B80008FE792E00E94C2118091C00085FFFCCF8AE08093C60082E50E9479148823B9F07B
:203BA0000E943B14AB01BC014093741150937511609376117093771180E692E00E94C21198
:203BC0008091C00085FFFCCF8AE08093C60084E50E9479148823B9F00E943B14AB01BC013C
:203BE0004093701150937111609372117093731182E492E00E94C2118091C00085FFFCCFA2
:203C00008AE08093C600089583E50E947914882351F00E943B1460937C1170937D1180932C
:203C20007E1190937F1184E50E947914882351F00E943B146093601170936111809362116E
:203C40009093631182E40E947914882361F00E943B140E94A6B46093B0117093B1118093C3
:203C6000B2119093B31188E50E947914882351F00E943B1460936C1170936D1180936E119E
:203C800090936F118AE50E947914882351F00E943B14609368117093691180936A1190936C
:203CA0006B1185E40E947914882351F00E943B14609364117093651180936611909367110D
:203CC00008958F929F92AF92BF92CF92DF92EF92FF920F931F93CF93DF930DEDC02E03E08C
:203CE000D02E85EAE82E87E0F82E0EED15E0C0E0D0E0F60181916F010E947914882309F127
:203D00000E943B144B015C01F80120813181428153810E9458B39B01AC01F7016081718165
:203D2000828193810E9459B3F7016083718382839383F80180829182A282B382CE010E94FC
:203D400060112196F4E0EF0EF11C0C5F1F4FC330D10579F6DF91CF911F910F91FF90EF901E
:203D6000DF90CF90BF90AF909F908F900C945E1585E40E947914811110C080E50E947914F8
:203D80008823A9F00E943B1460936C0270936D0280936E0290936F020AC00E943B140E94A7
:203DA000A1B4161617064CF7EFE6F8E0D5C089E40E947914882361F00E943B140E94F7813D
:203DC000609368027093690280936A0290936B0284E40E947914882361F00E943B140E94E3
:203DE00003826093640270936502809366029093670283E40E947914882351F00E943B1401
:203E0000609360027093610280936202909363028CE40E947914882341F00E943B140E94DA
:203E2000A1B470930C0260930B0280910B0290910C02C39734F082E390E090930C02809338
:203E40000B020E94B876E9E6F8E08491882341F09091C00095FFFCCF8093C6003196F5CF49
:203E6000EFE6F3E08191882339F09091C00095FFFCCF8093C600F6CF40916C0250916D0247
:203E800060916E0270916F0222E030E084E894E00E945911E3E7F3E08191882339F09091AD
:203EA000C00095FFFCCF8093C600F6CF609168027091690280916A0290916B020E94FD8153
:203EC000AB01BC0122E030E084E894E00E945911E7E7F3E08191882339F09091C00095FF7F
:203EE000FCCF8093C600F6CF609164027091650280916602909167020E940982AB01BC0101
:203F000022E030E084E894E00E945911EBE7F3E08191882339F09091C00095FFFCCF8093C5
:203F2000C600F6CF4091600250916102609162027091630222E030E084E894E00E945911C6
:203F40008091C00085FFFCCF1AC09091C00095FFFCCF8093C600319684918111F6CFEFE745
:203F6000F3E08191882339F09091C00095FFFCCF8093C600F6CF8091C00085FFFCCF8AE020
:203F80008093C6000895EF92FF920F93CF93DF9385E40E947914882321F00E946C14EC01C0
:203FA00002C0C0E0D0E083E40E947914882321F00E946C147C0103C095E0E92EF12C85E528
:203FC0000E947914882329F00E946C1401E0892B09F400E083E50E947914882319F00E946D
:203FE0003B1406C0D7FD09C060E070E086E193E4209739F41092BE0504C060E070E08CE890
:2040000092E410927105109270059701AE010E946A7C81E090E09093710580937005DF91CA
:20402000CF910F91FF90EF9008952F923F924F925F926F927F928F929F92AF92BF92CF921A
:20404000DF92EF92FF920F931F93CF93DF9300D000D0CDB7DEB78FE897E09C838B83EEED06
:20406000F5E0FA83E98305EA17E01E821D82212C312CEB81FC818191FC83EB83882309F423
:204080009BC0ED81FE81E25EFD4F2081318142815381ED81FE81E65DFD4F60817181828110
:2040A00093810E9459B320E030E040E05FE30E9407B79B01AC01F801608171818281938140
:2040C0000E9435B618164CF48D819E818B5B974F0E945A119B01AC0103C020E030E0A90119
:2040E000F80180809180A280B380C501B4010E9458B36B017C0120E030E040EA51EC0E9437
:2041000035B618161CF0EFE6F8E038C020E030E040EA51E4C701B6010E9432B487FFF3CF17
:20412000E981FA814080518062807380A7019601C301B2010E9458B36B017C01A3019201B1
:204140000E9458B39B01AC01C501B4010E9459B3F8016083718382839383E981FA81C0822E
:20416000D182E282F382C1010E94601125C09091C00095FFFCCF8093C600319684918111D2
:20418000F6CFE5E2F2E08491882341F09091C00095FFFCCF8093C6003196F5CF8091C0005B
:2041A00085FFFCCF8AE08093C60087E192E00E94E88648E250E025C0FFEF2F1A3F0A8981BA
:2041C0009A8104969A838983ED81FE813496FE83ED830C5F1F4FF3E02F16310409F049CF22
:2041E0000E945E1560E087E092E00E94D08643E952E068EC70E080E090E00E9446494AEB61
:2042000052E068EC70E080E090E026960FB6F894DEBF0FBECDBFDF91CF911F910F91FF9046
:20422000EF90DF90CF90BF90AF909F908F907F906F905F904F903F902F900C944649CF925B
:20424000DF92EF92FF92882361F1E9E6F8E09491992341F02091C00025FFFCCF9093C600DC
:204260003196F5CF9091C00095FFFCCF94E59093C6004AE050E0682F84E894E00E94BE10D0
:20428000EFE7F3E08191882339F09091C00095FFFCCF8093C600F6CF8091C00085FFFCCF91
:2042A00040C01092BE0586E40E947914882399F00E943B146B017C0120E030E0A9010E9496
:2042C00035B6181644F4C0924202D0924302E0924402F0924502E9E6F8E08491882341F037
:2042E0009091C00095FFFCCF8093C6003196F5CFE0E9F3E08191882339F09091C00095FF23
:20430000FCCF8093C600F6CF6091DB0570E04AE050E084E894E00E9487108091C00085FF4B
:20432000FCCF8AE08093C600FF90EF90DF90CF9008950E94A611E0918107F0918207EE5854
:20434000FA4F80818823A1F0EBEFF1E08491882341F09091C00095FFFCCF8093C60031965B
:20436000F5CF8091C00085FFFCCF8AE08093C600089584E894E00E94C60FEEEFF1E084915F
:20438000882341F09091C00095FFFCCF8093C6003196F5CF4091870750918807609189074D
:2043A00070918A074F5F5F4F6F4F7F4F2AE030E084E894E00E9464108091C00085FFFCCF53
:2043C0008AE08093C600B5CFCF93C62FEFE6F8E02491222379F03091C00035FFFCCF20937C
:2043E000C6003196F5CF3091C00035FFFCCF2093C6000196FC0124912111F5CF40918707D5
:20440000509188076091890770918A072AE030E084E894E00E9464108091C00085FFFCCFE9
:204420008AE08093C600C111A4DF1092D8051092D705CF910895CF92DF92EF92FF92CF93A4
:20444000DF93EC01C0902A02D0902B02E0902C02F0902D02A7019601688179818A819B815E
:204460000E9432B487FF04C0C882D982EA82FB82C0902E02D0902F02E0903002F090310276
:20448000A70196016C817D818E819F810E9432B487FF04C0CC82DD82EE82FF8220E030E043
:2044A000A901609132027091330280913402909135020E9459B36B017C019B01AC0168858B
:2044C00079858A859B850E9432B487FF04C0C886D986EA86FB86C0901E02D0901F02E090DE
:2044E0002002F0902102A7019601688179818A819B810E9435B6181624F4C882D982EA82CA
:20450000FB82C0902202D0902302E0902402F0902502A70196016C817D818E819F810E94ED
:2045200035B6181624F4CC82DD82EE82FF82C0902602D0902702E0902802F0902902A701BE
:204540009601688579858A859B850E9435B6181624F4C886D986EA86FB86DF91CF91FF90DA
:20456000EF90DF90CF9008954F925F926F927F928F929F92AF92BF92CF92DF92EF92FF92A5
:2045800049015A0120E030E0A9010E9459B36B017C0127ED33EB4DE55FEB0E9407B7609324
:2045A000A2057093A3058093A4059093A50520E030E040E05FEBC701B6010E9407B72B019B
:2045C0003C0160939E0570939F058093A0059093A10527ED33EB4DE55FE3C701B6010E9419
:2045E00007B760939A0570939B0580939C0590939D054092960550929705609298057092D3
:20460000990510929205109293051092940510929505C0928E05D0928F05E0929005F092AE
:20462000910520918A0530918B0540918C0550918D05C501B4010E9459B39B01AC010E946A
:2046400007B760937E0570937F058093800590938105209186053091870540918805509196
:204660008905C501B4010E9459B39B01AC010E9407B760937A0570937B0580937C0590932E
:204680007D0520918205309183054091840550918505C501B4010E9459B39B01AC010E943E
:2046A00007B760937605709377058093780590937905FF90EF90DF90CF90BF90AF909F9085
:2046C0008F907F906F905F904F9008958CE40E947914882351F00E943B14609311027093BD
:2046E0001202809313029093140282E50E947914882351F00E943B146093150270931602AD
:20470000809317029093180283E50E947914882351F00E943B1460930D0270930E02809394
:204720000F029093100281E40E947914882351F00E943B1460938A0570938B0580938C0509
:2047400090938D0582E40E947914882351F00E943B14609386057093870580938805909362
:20476000890583E40E947914882351F00E943B1460938205709383058093840590938505EA
:2047800020911102309112024091130250911402609115027091160280911702909118021D
:2047A000E3CE4F925F926F927F928F929F92AF92BF92CF92DF92EF92FF92CF93DF93EC01DB
:2047C000288139814A815B816091A2057091A3058091A4059091A5050E9458B32B013C01F3
:2047E0008C809D80AE80BF80A501940160919E0570919F058091A0059091A1050E9458B385
:204800006B017C01A3019201C301B2010E9407B79B01AC0160917E0570917F0580918005C9
:20482000909181050E9458B32B013C01A7019601C701B6010E9407B79B01AC01C301B201DD
:204840000E9458B30E9474B7C884D984EA84FB84A70196010E9459B36093B2057093B305F6
:204860008093B4059093B505288139814A815B8160919A0570919B0580919C0590919D05DF
:204880000E9458B32B013C01A5019401609196057091970580919805909199050E9458B384
:2048A0004B015C01A3019201C301B2010E9407B79B01AC0160917A0570917B0580917C0575
:2048C00090917D050E9458B32B013C01A5019401C501B4010E9407B79B01AC01C301B20149
:2048E0000E9458B30E9474B7A70196010E9459B36093B6057093B7058093B8059093B90533
:20490000288139814A815B81609192057091930580919405909195050E9458B32B013C01F1
:204920002C813D814E815F8160918E0570918F0580919005909191050E9458B34B015C0191
:20494000A3019201C301B2010E9407B79B01AC0160917605709177058091780590917905EA
:204960000E9458B32B013C01A5019401C501B4010E9407B79B01AC01C301B2010E9458B39E
:204980000E9474B7A70196010E9459B36093BA057093BB058093BC059093BD05DF91CF915F
:2049A000FF90EF90DF90CF90BF90AF909F908F907F906F905F904F90089585EA97E0F1DE11
:2049C00021EB37E04AEB55E066EB75E082EB95E00C94F36A0E94CE120E94D11240E950ED58
:2049E00063E070E084E894E00E94790FE5E1F8E08491882341F09091C00095FFFCCF809338
:204A0000C6003196F5CF8091C00085FFFCCF8AE08093C600E9E6F8E08491882341F0909129
:204A2000C00095FFFCCF8093C6003196F5CF84B780FF14C0EDE0F8E09491992341F02091FD
:204A4000C00025FFFCCF9093C6003196F5CF9091C00095FFFCCF9AE09093C60081FF14C03C
:204A6000EDEFF7E09491992341F02091C00025FFFCCF9093C6003196F5CF9091C00095FF28
:204A8000FCCF9AE09093C60082FF14C0ECEEF7E09491992341F02091C00025FFFCCF90934D
:204AA000C6003196F5CF9091C00095FFFCCF9AE09093C60083FF14C0ECEDF7E0949199231B
:204AC00041F02091C00025FFFCCF9093C6003196F5CF9091C00095FFFCCF9AE09093C6002E
:204AE00085FF14C0ECECF7E08491882341F09091C00095FFFCCF8093C6003196F5CF809109
:204B0000C00085FFFCCF8AE08093C60014BEE5ECF7E08491882341F09091C00095FFFCCF98
:204B20008093C6003196F5CFEAEBF7E08491882341F09091C00095FFFCCF8093C600319694
:204B4000F5CF8091C00085FFFCCF8AE08093C600E9E6F8E08491882341F09091C00095FF21
:204B6000FCCF8093C6003196F5CFEAEAF7E08491882341F09091C00095FFFCCF8093C60051
:204B80003196F5CFE9E9F7E08491882341F09091C00095FFFCCF8093C6003196F5CFEDE877
:204BA000F7E08491882341F09091C00095FFFCCF8093C6003196F5CFE6E7F7E08491882325
:204BC00041F09091C00095FFFCCF8093C6003196F5CF8091C00085FFFCCF8AE08093C6009D
:204BE000EBE6F7E08491882341F09091C00095FFFCCF8093C6003196F5CFEFE5F7E08491B8
:204C0000882341F09091C00095FFFCCF8093C6003196F5CF8091C00085FFFCCF8AE0809377
:204C2000C600E9E6F8E08491882341F09091C00095FFFCCF8093C6003196F5CFE0E5F7E0D6
:204C40008491882341F09091C00095FFFCCF8093C6003196F5CF0E948D444AE050E0BC0135
:204C600084E894E00E948710E9E3F7E08491882341F09091C00095FFFCCF8093C6003196A7
:204C8000F5CF4AE050E060ED74E084E894E00E9487108091C00085FFFCCF8AE08093C600D9
:204CA00081E0809372058093730580937405809375050E944F5580E00E9425570E94EE8D84
:204CC0000E9433790E94B05F78DE0E94A8AE0C9462748F929F92AF92BF92CF92DF92EF92DA
:204CE000FF920F931F93CF93DF930E94E9748091420290914302A0914402B091450280932F
:204D0000B5079093B607A093B707B093B80780914002909141029093F8058093F70584E6B4
:204D200090E090934102809340020E94A61181E00E94236C25EA822E27E0922E80E1F40181
:204D4000A5E9B7E001900D928A95E1F710924202109243021092440210924502F4011082E2
:204D600011821282138239EAE32E37E0F32EF7011082118212821382CDEAD7E01882198222
:204D80001A821B820E945E1545E9A42E47E0B42E80E090EEA4E4B4E4F50180839183A2838C
:204DA000B38359E9C52E57E0D52EF60180839183A283B3830DE917E0F80180839183A283C3
:204DC000B38380E090E6A2EAB6E48093420290934302A0934402B09345020E9437150E944F
:204DE000E9740E942B6CF50180819181A281B381F40180839183A283B383F601808191814C
:204E0000A281B381F70180839183A283B383F80180819181A281B38188839983AA83BB83DC
:204E200080E090E00E94681581E090E00E94681582E090E00E946815C0DD80E00E94236C74
:204E40008091B5079091B607A091B707B091B8078093420290934302A0934402B0934502F6
:204E60008091F7059091F80590934102809340020E94A6110E942B6CDF91CF911F910F919A
:204E8000FF90EF90DF90CF90BF90AF909F908F900C94E01B8F929F92AF92BF92CF92DF9209
:204EA000EF92FF920F931F93CF93DF9300D01F92CDB7DEB785E40E947914B82E811102C04C
:204EC0000E94E9746DEDC62E63E0D62E7AEEE72E75E0F72E05EA17E0812C912CA12CF60133
:204EE00081916F010E947914882369F1F801208131814281538129833A834B835C830E9461
:204F00003B14F801608371838283938329813A814B815C81F3E08F169104A9F00E9458B3F6
:204F20009B01AC01F70160817181828193810E9459B3F7016083718382839383C4010E9447
:204F40006011AA24A394FFEF8F1A9F0A84E0E80EF11C0C5F1F4FE4E08E16910409F0BFCFD7
:204F6000AA2089F00F900F900F900F90DF91CF911F910F91FF90EF90DF90CF90BF90AF90E8
:204F80009F908F901ACDBB20A1F081EB97E00F900F900F900F90DF91CF911F910F91FF9062
:204FA000EF90DF90CF90BF90AF909F908F900C94BE6B0F900F900F900F90DF91CF911F9103
:204FC0000F91FF90EF90DF90CF90BF90AF909F908F9008958F929F92AF92BF92CF92DF9226
:204FE000EF92FF920F931F93CF93DF93EC018B018091B90783FD90C0FB0180809180A2802E
:20500000B380288139814A815B81C501B4010E9458B36B017C0120E030E0A9010E9432B400
:20502000882309F479C0E091DB0524E0E29FF0011124E45CFC4E20910602309107024091B5
:2050400008025091090260817181828193810E9432B487FF25C088829982AA82BB82E9E620
:20506000F8E08491882341F09091C00095FFFCCF8093C6003196F5CFE1EEF1E08491882363
:2050800041F09091C00095FFFCCF8093C6003196F5CF8091C00085FFFCCF8AE08093C600D8
:2050A000C701B6010E94A1B497FF07C090958095709561957F4F8F4F9F4F6139714081057D
:2050C000910554F1F80180819181A281B38188839983AA83BB83E9E6F8E08491882341F068
:2050E0009091C00095FFFCCF8093C6003196F5CFE3ECF1E08491882341F09091C00095FF06
:20510000FCCF8093C6003196F5CF8091C00085FFFCCF8AE08093C600DF91CF911F910F91DD
:20512000FF90EF90DF90CF90BF90AF909F908F9008952F923F924F925F926F927F928F9283
:205140009F92AF92BF92CF92DF92EF92FF920F931F93CF93DF93CDB7DEB76A970FB6F89415
:20516000DEBF0FBECDBF3C01CE0101967C0105EA17E06301D6016D917D918D919D916D0132
:20518000F80121913191419151918F010E9458B3D7016D937D938D939D937D01B7E0053B24
:2051A0001B0741F769817A818B819C818D809E80AF80B884C984DA84EB84FC849B01AC010E
:2051C0000E9407B71B012C01A5019401C501B4010E9407B79B01AC01C201B1010E9459B3A4
:2051E0004B015C01A7019601C701B6010E9407B79B01AC01C501B4010E9459B30E9474B7A9
:205200006B017C012DEB37E346E855E30E9432B487FF11C0CD84DE84EF84F88820E030E078
:20522000A901C701B6010E9435B6181624F0F7FAF094F7F8F0942DEB37E346E855E3C7012E
:20524000B6010E9432B487FDC9C020E030E84BEB55E4C701B6010E9407B7209142023091E6
:20526000430240914402509145020E9439B46B017C016091400270914102882777FD809583
:20528000982F0E94D4B49B01AC01C701B6010E9439B420910D0230910E0240910F02509172
:2052A00010020E9407B70E94A1B45B01161617061CF0AA24A394B12C88248394912CC501AC
:2052C000AA2797FDA095BA2F8D8B9E8BAF8BB88FD3011C96BA8FA98FB401882777FD809595
:2052E000982F0E94D4B46B017C016D897E898F89988D0E94D4B49B01AC01C701B6010E9406
:2053000039B41B012C017A8A698AFE013196FC8BEB8B05EA17E0D801CD90DD90ED90FD900A
:205320008D01EB89FC896191719181919191FC8BEB8BA20191010E9407B79B01AC01C7011B
:20534000B6010E9459B3A989BA896D937D938D939D93BA8BA98BB7E0053B1B07E1F6C30106
:2053600020DA20E030E040E752E4609142027091430280914402909145020E9439B46B0191
:205380007C016091400270914102882777FD8095982F0E94D4B49B01AC01C701B6010E9486
:2053A00007B720E030E048EC52E40E9439B4C090DB057B018C01298D3A8D4AEB55E066EBB5
:2053C00075E082EB95E00E942661EFEF8E1A9E0AA814B9040CF080CF81E001C080E06A96F9
:2053E0000FB6F894DEBF0FBECDBFDF91CF911F910F91FF90EF90DF90CF90BF90AF909F90AD
:205400008F907F906F905F904F903F902F90089585E997E010D80E94A61161EA77E081EB32
:2054200097E0D8DD85E997E084DE81110C946D1608952F923F924F925F926F927F928F9210
:205440009F92AF92BF92CF92DF92EF92FF920F931F93CF93DF93CDB7DEB7C854D1090FB6A9
:20546000F894DEBF0FBECDBF9E8F8D8F7CA76BA7342EDB0114968D909D90AD90BC901797C3
:20548000CD90DD90ED90FC90A5019401C701B6010E9442B625966CAF7DAF8EAF9FAF25979C
:2054A0008091A5079091A607A091A707B091A8078D8B9E8BAF8BB88FA7019601BC01CD0106
:2054C0000E9459B369AF7AAF8BAF9CAF8091A9079091AA07A091AB07B091AC07898F9A8FAD
:2054E000AB8FBC8FA5019401BC01CD010E9459B321966CAF7DAF8EAF9FAF21978091AD07AD
:205500009091AE07A091AF07B091B0078F8F98A3A9A3BAA39C01AD01AD8DBE8D18966D9158
:205520007D918D919C911B970E9458B36BA37CA38DA39EA3AD8DBE8D1C968D919D910D90F5
:20554000BC91A02D29968CAF9DAFAEAFBFAF29978091B1079091B207A091B307B091B407D6
:205560008FA398A7A9A7BAA72601370177FA709477F87094D501C401B058898B9A8BAB8BB0
:20558000BC8BAD8DBE8D8D919D910D90BC91A02D8DA79EA7AFA7B8AB29AD3AAD4BAD5CAD4C
:2055A000BC01CD010E9458B36B017C01AD8DBE8D14968D919D910D90BC91A02D89AB9AAB1F
:2055C000ABABBCAB21962CAD3DAD4EAD5FAD2197BC01CD010E9458B34B015C01A7019601B5
:2055E000C301B2010E9407B76DAB7EAB8FAB98AFA501940169897A898B899C890E9407B749
:205600009B01AC016DA97EA98FA998AD0E9459B36DAB7EAB8FAB98AFA5019401C301B20165
:205620000E9407B74B015C01A701960169897A898B899C890E9407B79B01AC01C501B401D0
:205640000E9458B32DA93EA94FA958AD0E94CCB36B017C0120E030E0A9010E9432B487FF11
:205660000AC02BED3FE049EC50E4C701B6010E9459B36B017C01332051F02BED3FE049ECAA
:2056800050E4C701B6010E9458B36B017C0120E030E0A901C701B6010E9432B4811122C08C
:2056A0002DA53EA54FA558A96D897E898F89988D0E9432B4811116C029A93AA94BA95CA968
:2056C000698D7A8D8B8D9C8D0E9432B481110AC02BED3FE049EC50E4C701B6010E9459B3DB
:2056E0006B017C0125962CAD3DAD4EAD5FAD2597C701B6010E9407B72BA13CA14DA15EA10B
:205700005F770E9442B64B015C012FE632E143E85AE30E9432B487FDB4C1C501B4010E9442
:205720000FB50E94A6B47A8F698FFB01EF2B21F421E030E03A8F298FA98DBA8DBD0180E050
:2057400090E00E94D2B44B015C019B01AC01C701B6010E9439B46D8B7E8B8F8B988FA501C9
:2057600094016BA17CA18DA19EA10E9439B46DA77EA78FA798AB2FA138A549A55AA5299664
:205780006CAD7DAD8EAD9FAD29970E9458B3A50194010E9439B469AB7AAB8BAB9CAB20E052
:2057A00030E040E05FE36D897E898F89988D0E9407B72D893E894F89588D0E9407B79B01A7
:2057C000AC0160E070E080E89FE30E9458B36BA37CA38DA39EA38F8D98A1A9A1BAA189874D
:2057E0009A87AB87BC878FA198A5A9A5BAA58D879E87AF87B88B6091400270914102882721
:2058000077FD8095982F0E94D4B4209142023091430240914402509145020E9407B720E074
:2058200030E040E752E40E9439B420E030E048EC52E40E9439B46F8F78A389A39AA3B12C04
:2058400022242394312CE98DFA8D2E163F0608F000C1B39498E19B150CF441C02BA13CA195
:205860004DA15EA169897A898B899C890E9407B76B017C012D893E894F89588DC301B20113
:205880000E9407B7A70196010E9459B3162FA72E982E892E2BA13CA14DA15EA1C301B20117
:2058A0000E9407B76B017C012D893E894F89588D69897A898B899C890E9407B79B01AC018E
:2058C000C701B6010E9458B32B013C01812F9A2DA92DB82D898B9A8BAB8BBC8B65C0B10174
:2058E00080E090E00E94D2B42D893E894F89588D0E9407B76B017C010E9436B4698B7A8BA8
:205900008B8B9C8BC701B6010E946AB74B015C01ABA5BCA5CD90DD90ED90FC901397F7FA40
:20592000F094F7F8F09414968D919D910D90BC91A02D8FA398A7A9A7BAA729893A894B8958
:205940005C89C701B6010E9407B72B013C01A50194016FA178A589A59AA50E9407B79B0149
:20596000AC01C301B2010E9459B32B013C01A5019401C701B6010E9407B76B017C01298937
:205980003A894B895C896FA178A589A59AA50E9407B79B01AC01C701B6010E9458B3698B28
:2059A0007A8B8B8B9C8BB12CA301920169AD7AAD8BAD9CAD0E9459B369837A838B839C830F
:2059C00029893A894B895C8921966CAD7DAD8EAD9FAD21970E9459B36D837E838F83988790
:2059E0002DA53EA54FA558A969857A858B859C850E9459B369877A878B879C8729A93AA956
:205A00004BA95CA96D857E858F8598890E9459B36D877E878F87988BCE0101960E941B223E
:205A2000CE0101960E94D123C090DB05EF8CF8A009A11AA19E01235F3F4F4AEB55E066EB58
:205A400075E082EB95E00E942661BFEF2B1A3B0AFACE8D8D9E8D0E94D1232D8D3E8D245F03
:205A60003F4FC090DB05EF8CF8A009A11AA14AEB55E066EB75E082EB95E00E9426610E9433
:205A80006D16C85BDF4F0FB6F894DEBF0FBECDBFDF91CF911F910F91FF90EF90DF90CF90EF
:205AA000BF90AF909F908F907F906F905F904F903F902F9008951F93CF93DF93CDB7DEB764
:205AC00028970FB6F894DEBF0FBECDBF182F80914602882349F10E94771689E40E94791470
:205AE000882319F00E943B1403C060E070E0CB0169837A838B839C838AE40E947914882384
:205B000019F00E943B1403C060E070E0CB016D837E838F839887412FBE016F5F7F4F85E911
:205B200097E087DC0E94A61128960FB6F894DEBF0FBECDBFDF91CF911F9108955F988A98F7
:205B40009FB7F894E8E0F1E080818E7F80839FBF129808955F9A109292078A9A1092930780
:205B60009FB7F894E8E0F1E08081816080839FBF10929407129A08950E94E886F8940E94A3
:205B8000177AE8DF60E08CE00E946DB2EFE6F8E08491882341F09091C00095FFFCCF80934F
:205BA000C6003196F5CFE2E9F1E08491882341F09091C00095FFFCCF8093C6003196F5CF63
:205BC0008091C00085FFFCCF8AE08093C6007894C6E0D0E0219749F068EC70E080E090E09B
:205BE0000E94B3B00E94098EF5CFF894A895FECF8F929F92AF92BF92CF92DF92EF92FF9245
:205C00000F931F93CF93DF93BAE0FB2E80917D0790917E0704970CF033C12FB7F894809150
:205C20000505909106052FBF891B8F7709F428C184E894E00E94AF0F2091D7053091D80545
:205C40008A3019F08D3009F0E8C010926B0521153105E1F2F901E55FFA4F10821092D8053A
:205C60001092D7058BE095E06C01FC01208101962032D1F3E6012E3411F0C12CD12C6AE28E
:205C800070E0CE010E949ABB8C01C114D10409F474C06EE177E0CE010E944CBBEE24E394DF
:205CA000892B11F4E12C09C06EE470E0CE0104960E949ABB009709F06C014AE050E060E0BC
:205CC00070E0C60101960E94E4B960938B0770938C0780938D0790938E078090870790909F
:205CE0008807A0908907B0908A07FFEF8F1A9F0AAF0ABF0A681579058A059B0531F0E11086
:205D000004C061E08BEE96E03DC00115110501F180E0D12CFE01E80FF11D90819A3219F02D
:205D20008F5FD926F7CF4AE050E060E070E0C80101960E94E4B90D2D10E020E030E0601776
:205D400071078207930741F061E08CEC96E01AC061E082EA96E016C080918B0790918C071E
:205D6000A0918D07B0918E078093870790938807A0938907B0938A0713C0009789F060E07B
:205D800088E796E0DF91CF911F910F91FF90EF90DF90CF90BF90AF909F908F900C94E421A1
:205DA00080914602811129C067E470E0CE010E949ABB009711F14AE050E060E070E0019694
:205DC0000E94E4B964307105C0F4E2E0F6E08491882341F09091C00095FFFCCF8093C60024
:205DE0003196F5CF8091C00085FFFCCFF092C60060E088EF95E00E94D08662EA73E0CE011E
:205E00000E94A5BB892B19F48FEE95E0B5DE61E08BE095E00E940012F9CE2F3531050CF008
:205E2000F5CE8C35C1F42FB7F89480910505909106052FBF891B8F7709F4E8CE84E894E045
:205E40000E94AF0F90916B059111E0CE2091D7053091D80509C08B3319F491E090936B053E
:205E600090916B059111D2CEA9014F5F5F4F5093D8054093D705F901E55FFA4F8083C6CEBC
:205E8000DF91CF911F910F91FF90EF90DF90CF90BF90AF909F908F9008950E946C128111DB
:205EA00003C0A6DE0C94D4120895CF92DF92EF92FF920F931F93CF93C82F80917D07909131
:205EC0007E0704970CF4E9DF0E9484B0C090CB05D090CC05E090CD05F090CE05C114D10474
:205EE000E104F104B9F00091CF051091D0052091D1053091D2050C0D1D1D2E1D3F1D6B01BF
:205F00007C01C01AD10AE20AF30AF7FC03C08AEB91E042C0C0901A02D0901B02E0901C0251
:205F2000F0901D02C114D104E104F104E1F00091CF051091D0052091D1053091D2050C0D5A
:205F40001D1D2E1D3F1D6B017C01C01AD10AE20AF30AF7FC08C0C11106C090917E0C8091CA
:205F60007D0C981719F18091070590910805909902C0019604C0181619062CF40197909326
:205F800008058093070580910705909108058E3E92401CF081EB91E0EFDDCF911F910F9187
:205FA000FF90EF90DF90CF900C9409615F9A109292078A9A109293079FB7F894809108016B
:205FC0008160809308019FBF10929407129ACBCF0E94987B80E069DF0E9413170C94098E83
:205FE0008F929F92AF92BF92CF92DF92EF92FF9280E50E947914882329F00E9461144B011E
:206000005C0103C0812C912C540183E50E947914882361F00E943B1420E030E04AE754E4A4
:206020000E9407B70E94A6B44B015C010E94E9740E94A611C090CF05D090D005E090D10564
:20604000F090D205C80CD91CEA1CFB1C0E947786811105C060E08DE495E00E94D0860E944D
:2060600084B06C197D098E099F0997FF02C0B0DFF6CFFF90EF90DF90CF90BF90AF909F905D
:206080008F9008958F929F92AF92BF92CF92DF92EF92FF921F93CF93DF93C0918307D091BA
:2060A00084076CE070E087E295E00E94B11180E50E947914882379F00E946C146C01EE242E
:2060C000D7FCE094FE2C11E0C114D104E104F10431F410E004C010E0C12CD12C760183E548
:2060E0000E9479148823D9F00E943B1420E030E04AE754E40E9407B70E94A6B46B017C014E
:2061000011110FC0611571058105910551F48881882339F061E0CE010E947E8607C01123B3
:20612000B1F360E086E195E00E94D08681E00E944D860E94E9740E94A611C114D104E104EA
:20614000F104F9F08090CF059090D005A090D105B090D2058C0C9D1CAE1CBF1C83E090E0A2
:2061600090937105809370050E9484B0681979098A099B0997FF32C00E94468781112EC077
:2061800037C00E9444878823A9F183E090E090937105809370050E944687811102C018DFA8
:2061A000FACF81E090E090937105809370058091BC0760E0882319F087E095E002C084EF4B
:2061C00094E0DF91CF911F91FF90EF90DF90CF90BF90AF909F908F900C94D08681E090E04C
:2061E000909371058093700580E00E944D86DFCFEFDEBACFDF91CF911F91FF90EF90DF90A8
:20620000CF90BF90AF909F908F9008954F925F926F927F928F929F92AF92BF92CF92DF920C
:20622000EF92FF920F931F93CF93DF938DE690E00E948D1481117FC18091B90783FD7BC19F
:2062400083E50E947914B82E811106C082E50E947914882309F440C00E943B146B017C0151
:206260000091BE0510E0E801CC0FDD1FCA5ADC4EC701B6010E94A1B479836883C8010E9404
:20628000B57920E030E04AEA52E4C701B6010E9432B418160CF483C08FEB95E00E94887550
:2062A00060E08FE394E00E94D086E091BE0584E0E89FF0011124E45CFC4E208131814281DB
:2062C0005381C701B6010E9435B618162CF460E084E394E00E94D08686E40E9479148093D1
:2062E0004F11882351F00E943B1460934702709348028093490290934A0283E50E94791474
:20630000882351F00E943B1460934B0270934C0280934D0290934E0282E40E9479148823FA
:2063200051F00E943B1460934F02709350028093510290935202C091BE05D0E0FE01EE0FF5
:20634000FF1FEA5AFC4E60817181882777FD8095982F0E94D4B46B017C01FE01EE0FFF1F92
:20636000EE0FFF1FE45CFC4E20813181428153810E9432B4881F8827881FBB2019F088237A
:2063800099F0D9C0882381F020E030E04AEA52E4C701B6010E9432B487FDCDC005C08FEBEE
:2063A00095E00E94D57581CF1092D905412C512C3201C12CD12C7601CAE00E9484B04B0162
:2063C0005C01DC01CB0184199509A609B709B7FD4CC02401350188EE480E83E0581E611CD0
:2063E000711C0E946F19E0E3F4E08491882341F09091C00095FFFCCF8093C6003196F5CFBA
:20640000C114D104E104F10419F4EEE2F4E024C0C701B601605F784D8F4F9F4F6819790991
:206420008A099B0928EE33E040E050E00E940FB8BA01A9012AE030E084E894E00E946410CE
:206440008091C00085FFFCCF0EC09091C00095FFFCCF8093C600319684918111F6CF8091F1
:20646000C00085FFFCCFC093C600B2DD0E94A6110091BE0510E0F801EE0FFF1FEA5AFC4E26
:2064800060817181882777FD8095982F0E94D4B4F801EE0FFF1FEE0FFF1FE45CFC4E2081A6
:2064A0003181428153810E9458B39F77C114D104E104F10469F420E030E040E85FE30E94D3
:2064C00032B487FF0DC00E9484B06B017C0108C020E030E040E450E40E9435B618169CF34A
:2064E0008091D905811112C0C114D104E104F10409F463CF80E1881A87E2980AA108B10826
:206500008C189D08AE08BF08B7FC57CF60E080E294E0DF91CF911F910F91FF90EF90DF9029
:20652000CF90BF90AF909F908F907F906F905F904F900C94D086DF91CF911F910F91FF909F
:20654000EF90DF90CF90BF90AF909F908F907F906F905F904F900895CF92DF92EF92FF92B5
:20656000CF93DF9380E50E947914882309F44EC00E943B146B017C0183E50E9479148823E1
:2065800031F00E943B140E94A1B4EB0102C0CFEFDFEFCE0101960397C8F5C701B6010E94DA
:2065A000A1B4F62E262F372FE7EAF3E0419151914217530759F183E0ED3DF807B9F737FDE2
:2065C00025C00E94E974EF2C60E08F2D0E946DB2CF3F8FEFD80729F0219771F0C0E0D0E012
:2065E0000DC08F2D0E94DBB231E020E0892B09F030E0C32FD22F02C0C1E0D0E08E2D0E94B2
:20660000DBB28C179D0711F0E3DCF8CFDF91CF91FF90EF90DF90CF900895CF92DF92EF9283
:20662000FF926B017C018091F605882331F120E030E0A901C701B6010E9432B48823E9F0C2
:2066400020E030E040E05FE3C701B6010E9407B76B017C012BED3FE049E450E40E9407B708
:20666000A70196010E9407B79B01AC0160E070E080E89FE30E9439B404C060E070E080E86D
:206680009FE3FF90EF90DF90CF90089560913A0270913B0280913C0290913D02BEDF609355
:2066A00036027093370280933802909339020895CF92DF92EF92FF92CF9388EC90E00E9452
:2066C0008D14811144C084E40E947914882309F43EC00E943B146B017C01C1E020E030E0BB
:2066E000A9010E9432B4811101C0C0E0C093F605CC2339F1E091BE0584E0E89FF0011124C9
:20670000E65CFD4FC082D182E282F38220E030E0A90160913A0270913B0280913C029091E8
:206720003D020E9432B481110CC080E090E0A0E4B0E480933A0290933B02A0933C02B093E9
:206740003D02CF91FF90EF90DF90CF909FCFCF91FF90EF90DF90CF900895CF92DF92EF9224
:20676000FF920F931F93CF93DF93209181073091820740E6429FC001439F900D112483508E
:206780009A4F90938607809385078091B90780FF22C0E9E6F8E08491882341F09091C00016
:2067A00095FFFCCF8093C6003196F5CFE0918507F09186078191882339F09091C00095FFB0
:2067C000FCCF8093C600F6CF8091C00085FFFCCF8AE08093C6008091850790918607FC01A5
:2067E000208101962032D9F3F0938607E09385072E3461F0C0918507D09186076AE270E01A
:20680000CE010E949ABB0097D1F420C0818190ED980F9A3010F08D3269F73296DF013196F8
:206820002C9120532A30D0F3CD01FC01019620812032D9F3F0938607E0938507DBCFFC0134
:2068400031968291803229F08A3219F0FE01619102C01082F6CF2E2F9F2F81918032D9F309
:2068600080538A3018F00E94DD16D4C3E22FF92F20E030E09AE08191A901949F9001959FE0
:20688000300D112420533109280F311D87FD3A95808180538A3078F3CF013196DC014C91B7
:2068A0004032D1F3909384078093830741E050E050937105409370056D3409F43DC0643531
:2068C00009F488C3673409F089C32430310559F120F42230310500F515C02A35310529F1A7
:2068E00038F42C31310509F08DC30E9469268AC32B353105E9F02C35310509F083C30E942B
:206900004A2780C380914602882309F47BC30E9477160E94082A76C381E02230310509F066
:2069200080E0C9D86FC35CDB6DC31092DA056AC381E08093DA0567C32F36310509F4C4C175
